:100000000C9435000C945D000C945D000C945D0024
:100010000C945D000C945D000C945D000C945D00EC
:100020000C945D000C945D000C945D000C945D00DC
:100030000C945D000C945D000C945D000C945D00CC
:100040000C945B010C945D000C9407020C945D0011
:100050000C945D000C945D000C945D000C945D00AC
:100060000C945D000C945D008C0311241FBECFEF37
:10007000D4E0DEBFCDBF11E0A0E0B1E0E2E0FBE004
:1000800002C005900D92A031B107D9F711E0A0E1AF
:10009000B1E001C01D92A53CB107E1F710E0CAE64E
:1000A000D0E004C02297FE010E947B05C836D1072C
:1000B000C9F70E9454010C947F050C940000FC01C8
:1000C000429A20E030E0CB01022E02C0880F991F37
:1000D0000A94E2F787FF02C0409A01C04098419815
:1000E000419A2F5F3F4F2830310569F720E030E01B
:1000F000CF01022E02C0880F991F0A94E2F787FFF2
:1001000002C0409A01C040984198419A2F5F3F4FEA
:100110002830310569F720E030E0CA01022E02C024
:10012000880F991F0A94E2F787FF02C0409A01C026
:1001300040984198419A2F5F3F4F2830310569F729
:1001400042980895DF92EF92FF920F931F93CF93FF
:10015000DF9382EB91E00E943D03882309F47EC087
:10016000C0912201D0912301C930D1050CF076C095
:1001700082EB91E00E945103CC0FDD1FC05FDE4F88
:1001800099838883E0912201F0912301EE0FFF1FF4
:10019000E05FFE4F6081718182EB91E00E94E60496
:1001A00080912201909123010196909323018093E5
:1001B0002201CFCF82EB91E060E071E00E941C044D
:1001C0000CC0181619066CF482EB91E062E071E045
:1001D0000E941C0481E0809324011092230110925C
:1001E000220180912401882309F041C08BB18770DE
:1001F0008BB985B1887F85B900E111E0C0E0D0E01E
:10020000DD24D39492E0E92E84E0F82E1FC02097DD
:1002100011F4F5B809C0C130D10511F4E5B804C036
:10022000C230D10509F4D5B8F801628173814481E7
:100230005581808191810E945F0065E070E080E0DF
:1002400090E00E94A30121960A5F1F4F8091040154
:1002500090910501C817D907D4F209C080912201F5
:10026000909123018930910509F0ABCFA3CFDF91A5
:10027000CF911F910F91FF90EF90DF9008958FEF36
:100280008AB987B984B91BB815B88BB187708BB997
:1002900085B1887F85B982EB91E040E052EC61E066
:1002A00070E00E94440208950E94CD010E943F0127
:1002B0000E94A200FDCF1F920F920FB60F92112441
:1002C0002F933F938F939F93AF93BF938091290177
:1002D00090912A01A0912B01B0912C0130912D0118
:1002E0000196A11DB11D232F2D5F2D3720F02D5715
:1002F0000196A11DB11D20932D018093290190939A
:100300002A01A0932B01B0932C018091250190919B
:100310002601A0912701B09128010196A11DB11DD0
:100320008093250190932601A0932701B093280183
:10033000BF91AF919F918F913F912F910F900FBEE1
:100340000F901F901895EF92FF920F931F937B01D0
:100350008C018FB7F8944091290150912A01609146
:100360002B0170912C018FBF2FB7F8948091290138
:1003700090912A01A0912B01B0912C012FBF841BD9
:10038000950BA60BB70BE816F9060A071B0760F7D3
:100390001F910F91FF90EF900895789484B582603B
:1003A00084BD84B5816084BD85B5826085BD85B519
:1003B000816085BDEEE6F0E0808181608083E1E8C8
:1003C000F0E0808182608083808181608083E0E8CA
:1003D000F0E0808181608083E1EBF0E080818460E7
:1003E0008083E0EBF0E0808181608083EAE7F0E0E9
:1003F000808184608083808182608083808181604D
:1004000080838081806880831092C10008951F924C
:100410000F920FB60F9211242F933F934F935F9338
:100420006F937F938F939F93AF93BF93EF93FF93BC
:100430004091C600E091AE01F091AF01CF0101966D
:1004400060E870E00E9415059C018091B0019091D8
:10045000B1012817390739F0E25DFE4F4083309330
:10046000AF012093AE01FF91EF91BF91AF919F91AA
:100470008F917F916F915F914F913F912F910F904D
:100480000FBE0F901F9018955F926F927F928F9280
:100490009F92AF92BF92CF92DF92EF92FF920F9313
:1004A0001F93CF93DF93EC013A014B01413482E477
:1004B00058078FE0680780E078070CF07FC060E89D
:1004C00074E88EE190E0A40193010E944A05215056
:1004D000304040405040CA01B90122E030E040E0E5
:1004E00050E00E944A0559016A01A6019501209534
:1004F00030954095509594E0220F331F441F551FAF
:100500009A95D1F760E074E284EF90E00E944A058A
:10051000CA01B9012FEF30E040E050E00E94F6043C
:10052000A40193010E944A05C90181509F4F1816EA
:1005300019061CF4522E5A9403C055245394521A8F
:1005400060E079E08DE390E0A40193010E944A0508
:100550002150304040405040CA01B90122E030E013
:1005600040E050E00E944A05209530954095509516
:1005700083E0220F331F441F551F8A95D1F760E097
:1005800074E284EF90E00E944A05CA01B9012FEF9E
:1005900030E040E050E00E94F604A40193010E9484
:1005A0004A05C90181509F4F181619061CF4822F65
:1005B000815002C081E0821B851500F5E885F98530
:1005C00081E090E00A8802C0880F991F0A94E2F740
:1005D000808360E079E08DE390E0A40193010E94C4
:1005E0004A052150304040405040CA01B90122E044
:1005F00030E040E050E00E944A0504C0E885F985FB
:1006000010829501EC81FD813083EE81FF81208392
:10061000EA85FB85208141E050E0CA010E8402C0DA
:10062000880F991F0A94E2F7282B2083EA85FB851F
:100630002081CA010F8402C0880F991F0A94E2F733
:10064000282B2083EA85FB858081088802C0440F1F
:10065000551F0A94E2F7842B8083DF91CF911F917D
:100660000F91FF90EF90DF90CF90BF90AF909F9051
:100670008F907F906F905F900895DC011296ED91BE
:10068000FC911397E058FF4F8191919180589F4FB3
:1006900020813181821B930B60E870E00E94150578
:1006A0000895CF93DF93DC011296ED91FC9113979F
:1006B000EF01CE57DF4F48815981E058FF4F8081CD
:1006C0009181E058F0408417950719F42FEF3FEF20
:1006D0000CC0E40FF51F2081CA01019660E870E0AC
:1006E0000E9415059983888330E0C901DF91CF917D
:1006F0000895FC01A085B18521898C9190E0022E9E
:1007000002C0959587950A94E2F780FFF6CF04849E
:10071000F585E02D608308958AE091E09093B30120
:100720008093B2018EE291E09093B5018093B40181
:1007300085EC90E09093B7018093B60184EC90E053
:100740009093B9018093B80180EC90E09093BB0145
:100750008093BA0181EC90E09093BD018093BC013D
:1007600086EC90E09093BF018093BE0184E080937B
:10077000C00183E08093C10187E08093C20185E0DE
:100780008093C30181E08093C40108950F931F9368
:10079000CF93DF938C01EB0109C02196D801ED9135
:1007A000FC910190F081E02DC801099568816623D4
:1007B000A1F7DF91CF911F910F910895EF92FF92D2
:1007C0000F931F93CF93DF938C017B01EA010CC041
:1007D000D7016D917D01D801ED91FC910190F081DF
:1007E000E02DC80109952197209791F7DF91CF91CE
:1007F0001F910F91FF90EF900895DC01ED91FC9116
:100800000280F381E02D099508950F931F938C01C9
:10081000DC01ED91FC910190F081E02D6DE00995F6
:10082000D801ED91FC910190F081E02DC8016AE0C2
:1008300009951F910F9108950F931F938C010E94AA
:10084000FD03C8010E9405041F910F9108952F9286
:100850003F924F925F926F927F928F929F92AF9250
:10086000BF92CF92DF92EF92FF920F931F93DF938D
:10087000CF93CDB7DEB7A0970FB6F894DEBF0FBE0B
:10088000CDBF1C016A017B01411551056105710550
:1008900049F4DC01ED91FC910190F081E02D60E3E1
:1008A000099554C0882499245401422E5524662465
:1008B000772401E010E00C0F1D1F080D191DC70162
:1008C000B601A30192010E942805F80160830894F3
:1008D000811C911CA11CB11CC701B601A30192018E
:1008E0000E942805C901DA016C017D01C114D104FF
:1008F000E104F104F1F681E0E82EF12CEC0EFD1E8E
:10090000E80CF91C3E010894611C711CD501C4015E
:100910000197A109B1096C01C818D90814C0F601E2
:10092000EE0DFF1D60816A3010F4605D01C0695CEE
:10093000D101ED91FC910190F081E02DC10109956B
:100940000894E108F1086E147F0449F7A0960FB6E9
:10095000F894DEBF0FBECDBFCF91DF911F910F91F5
:10096000FF90EF90DF90CF90BF90AF909F908F90CF
:100970007F906F905F904F903F902F900895EF92EF
:10098000FF920F931F93CF93DF93EC017A018B01BA
:1009900077FF0FC0E881F9810190F081E02D6DE2D1
:1009A000099510950095F094E094E11CF11C011D4F
:1009B000111DCE01B801A7012AE00E942704DF9192
:1009C000CF911F910F91FF90EF9008950F931F9378
:1009D0008C01AB01662757FD6095762F0E94BF04FE
:1009E000C8010E9405041F910F910895629FD001D4
:1009F000739FF001829FE00DF11D649FE00DF11DDA
:100A0000929FF00D839FF00D749FF00D659FF00D88
:100A10009927729FB00DE11DF91F639FB00DE11D75
:100A2000F91FBD01CF011124089597FB092E072658
:100A30000AD077FD04D049D006D000201AF4709572
:100A400061957F4F0895F6F7909581959F4F089592
:100A5000A1E21A2EAA1BBB1BFD010DC0AA1FBB1FC2
:100A6000EE1FFF1FA217B307E407F50720F0A21B34
:100A7000B30BE40BF50B661F771F881F991F1A94A1
:100A800069F760957095809590959B01AC01BD01CB
:100A9000CF01089597FB092E05260ED057FD04D0EF
:100AA000D7DF0AD0001C38F4509540953095219539
:100AB0003F4F4F4F5F4F0895F6F790958095709593
:100AC00061957F4F8F4F9F4F0895AA1BBB1B51E12C
:100AD00007C0AA1FBB1FA617B70710F0A61BB70BAE
:100AE000881F991F5A95A9F780959095BC01CD0153
:100AF0000895EE0FFF1F0590F491E02D0994F894EE
:020B0000FFCF25
:100B0200730066000300000000007903C603DE03E1
:00000001FF
